S01300006C65645F706F696E7465722E737265637C
S113000045C000004BC0000049C0000047C00000CC
S113001045C0000043C0000041C000003FC00000D4
S11300203DC000003BC0000039C0000037C00000E4
S113003035C0000033C0000031C000002FC00000F4
S11300402DC000002BC0000029C0000027C0000004
S113005025C0000023C0000021C000001FC0000014
S11300601DC000001BC0000019C0000017C0000024
S113007015C0000013C0000011C000000FC0000034
S11300800DC000000BC0000009C0000011241FBEF9
S1130090CFEFD0E1DEBFCDBF15D031C0B1CF8FEFF0
S11300A087BB089588BB0895FC019081292F30E017
S11300B0220F331F991F9927991F892F822B808321
S11300C0F1CF0895CF93DF931F92CDB7DEB7E7DF6B
S11300D081E0898300E010E00EC0CE010196E4DFE8
S11300E02FEF85EA9EE0215080409040E1F700C068
S11300F000000F5F1F4F073011057CF3EBCFF8941E
S1050100FFCF2B
S9030000FC
